{
  "_format": "hh-sol-artifact-1",
  "contractName": "SocialMedia",
  "sourceName": "contracts/SocialMedia.sol",
  "abi": [
    {
      "inputs": [
        {
          "internalType": "string",
          "name": "_username",
          "type": "string"
        },
        {
          "internalType": "string",
          "name": "_bio",
          "type": "string"
        },
        {
          "internalType": "bool",
          "name": "_isPrivate",
          "type": "bool"
        }
      ],
      "name": "createProfile",
      "outputs": [],
      "stateMutability": "nonpayable",
      "type": "function"
    },
    {
      "inputs": [
        {
          "internalType": "address",
          "name": "_user",
          "type": "address"
        }
      ],
      "name": "getProfile",
      "outputs": [
        {
          "internalType": "string",
          "name": "",
          "type": "string"
        },
        {
          "internalType": "string",
          "name": "",
          "type": "string"
        },
        {
          "internalType": "bool",
          "name": "",
          "type": "bool"
        }
      ],
      "stateMutability": "view",
      "type": "function"
    },
    {
      "inputs": [
        {
          "internalType": "bool",
          "name": "_isPrivate",
          "type": "bool"
        }
      ],
      "name": "setPrivacy",
      "outputs": [],
      "stateMutability": "nonpayable",
      "type": "function"
    }
  ],
  "bytecode": "0x608060405234801561001057600080fd5b5061080b806100206000396000f3fe608060405234801561001057600080fd5b50600436106100415760003560e01c80630f53a47014610046578063733a9db514610078578063aecdd52314610094575b600080fd5b610060600480360381019061005b91906104ab565b6100b0565b60405161006f939291906105c4565b60405180910390f35b610092600480360381019061008d91906104d4565b61025d565b005b6100ae60048036038101906100a991906104fd565b6102b9565b005b6060806000806000808673ffffffffffffffffffffffffffffffffffffffff1673ffffffffffffffffffffffffffffffffffffffff16815260200190815260200160002060405180606001604052908160008201805461010f90610706565b80601f016020809104026020016040519081016040528092919081815260200182805461013b90610706565b80156101885780601f1061015d57610100808354040283529160200191610188565b820191906000526020600020905b81548152906001019060200180831161016b57829003601f168201915b505050505081526020016001820180546101a190610706565b80601f01602080910402602001604051908101604052809291908181526020018280546101cd90610706565b801561021a5780601f106101ef5761010080835404028352916020019161021a565b820191906000526020600020905b8154815290600101906020018083116101fd57829003601f168201915b505050505081526020016002820160009054906101000a900460ff1615151515815250509050806000015181602001518260400151935093509350509193909250565b806000803373ffffffffffffffffffffffffffffffffffffffff1673ffffffffffffffffffffffffffffffffffffffff16815260200190815260200160002060020160006101000a81548160ff02191690831515021790555050565b60405180606001604052808481526020018381526020018215158152506000803373ffffffffffffffffffffffffffffffffffffffff1673ffffffffffffffffffffffffffffffffffffffff1681526020019081526020016000206000820151816000019080519060200190610330929190610376565b50602082015181600101908051906020019061034d929190610376565b5060408201518160020160006101000a81548160ff021916908315150217905550905050505050565b82805461038290610706565b90600052602060002090601f0160209004810192826103a457600085556103eb565b82601f106103bd57805160ff19168380011785556103eb565b828001600101855582156103eb579182015b828111156103ea5782518255916020019190600101906103cf565b5b5090506103f891906103fc565b5090565b5b808211156104155760008160009055506001016103fd565b5090565b600061042c6104278461063a565b610609565b90508281526020810184848401111561044457600080fd5b61044f8482856106c4565b509392505050565b600081359050610466816107a7565b92915050565b60008135905061047b816107be565b92915050565b600082601f83011261049257600080fd5b81356104a2848260208601610419565b91505092915050565b6000602082840312156104bd57600080fd5b60006104cb84828501610457565b91505092915050565b6000602082840312156104e657600080fd5b60006104f48482850161046c565b91505092915050565b60008060006060848603121561051257600080fd5b600084013567ffffffffffffffff81111561052c57600080fd5b61053886828701610481565b935050602084013567ffffffffffffffff81111561055557600080fd5b61056186828701610481565b92505060406105728682870161046c565b9150509250925092565b61058581610698565b82525050565b60006105968261066a565b6105a08185610675565b93506105b08185602086016106d3565b6105b981610796565b840191505092915050565b600060608201905081810360008301526105de818661058b565b905081810360208301526105f2818561058b565b9050610601604083018461057c565b949350505050565b6000604051905081810181811067ffffffffffffffff821117156106305761062f610767565b5b8060405250919050565b600067ffffffffffffffff82111561065557610654610767565b5b601f19601f8301169050602081019050919050565b600081519050919050565b600082825260208201905092915050565b6000610691826106a4565b9050919050565b60008115159050919050565b600073ffffffffffffffffffffffffffffffffffffffff82169050919050565b82818337600083830152505050565b60005b838110156106f15780820151818401526020810190506106d6565b83811115610700576000848401525b50505050565b6000600282049050600182168061071e57607f821691505b6020821081141561073257610731610738565b5b50919050565b7f4e487b7100000000000000000000000000000000000000000000000000000000600052602260045260246000fd5b7f4e487b7100000000000000000000000000000000000000000000000000000000600052604160045260246000fd5b6000601f19601f8301169050919050565b6107b081610686565b81146107bb57600080fd5b50565b6107c781610698565b81146107d257600080fd5b5056fea26469706673582212207883108f31aa9fb3657294b68b2f792b67d5b77f56c48dfa0d38d4c85f3f959d64736f6c63430008000033",
  "linkReferences": {},
  "deployedLinkReferences": {}
}